{
  "_format": "hh-sol-artifact-1",
  "contractName": "DeliveryTracking",
  "sourceName": "src/contracts/DeliveryTracking.sol",
  "abi": [
    {
      "inputs": [],
      "stateMutability": "nonpayable",
      "type": "constructor"
    },
    {
      "anonymous": false,
      "inputs": [
        {
          "indexed": false,
          "internalType": "string",
          "name": "packageId",
          "type": "string"
        }
      ],
      "name": "DeliveryCreated",
      "type": "event"
    },
    {
      "anonymous": false,
      "inputs": [
        {
          "indexed": false,
          "internalType": "string",
          "name": "packageId",
          "type": "string"
        },
        {
          "indexed": false,
          "internalType": "enum DeliveryTracking.Status",
          "name": "newStatus",
          "type": "uint8"
        }
      ],
      "name": "StatusUpdated",
      "type": "event"
    },
    {
      "stateMutability": "payable",
      "type": "fallback"
    },
    {
      "inputs": [
        {
          "internalType": "address",
          "name": "_admin",
          "type": "address"
        }
      ],
      "name": "changeAdmin",
      "outputs": [],
      "stateMutability": "nonpayable",
      "type": "function"
    },
    {
      "inputs": [
        {
          "internalType": "string",
          "name": "_packageId",
          "type": "string"
        },
        {
          "internalType": "string",
          "name": "_meta",
          "type": "string"
        }
      ],
      "name": "createDelivery",
      "outputs": [],
      "stateMutability": "nonpayable",
      "type": "function"
    },
    {
      "inputs": [
        {
          "internalType": "string",
          "name": "_packageId",
          "type": "string"
        }
      ],
      "name": "getDelivery",
      "outputs": [
        {
          "internalType": "string",
          "name": "",
          "type": "string"
        },
        {
          "internalType": "enum DeliveryTracking.Status",
          "name": "",
          "type": "uint8"
        },
        {
          "internalType": "string",
          "name": "",
          "type": "string"
        }
      ],
      "stateMutability": "view",
      "type": "function"
    },
    {
      "inputs": [
        {
          "internalType": "string",
          "name": "_packageId",
          "type": "string"
        }
      ],
      "name": "getStatus",
      "outputs": [
        {
          "internalType": "enum DeliveryTracking.Status",
          "name": "",
          "type": "uint8"
        }
      ],
      "stateMutability": "view",
      "type": "function"
    },
    {
      "inputs": [
        {
          "internalType": "string",
          "name": "_packageId",
          "type": "string"
        },
        {
          "internalType": "enum DeliveryTracking.Status",
          "name": "_status",
          "type": "uint8"
        },
        {
          "internalType": "string",
          "name": "_meta",
          "type": "string"
        }
      ],
      "name": "updateStatus",
      "outputs": [],
      "stateMutability": "nonpayable",
      "type": "function"
    },
    {
      "inputs": [],
      "name": "withdraw",
      "outputs": [],
      "stateMutability": "nonpayable",
      "type": "function"
    },
    {
      "stateMutability": "payable",
      "type": "receive"
    }
  ],
  "bytecode": "0x6080604052348015600f57600080fd5b50336000806101000a81548173ffffffffffffffffffffffffffffffffffffffff021916908373ffffffffffffffffffffffffffffffffffffffff1602179055506115108061005f6000396000f3fe6080604052600436106100595760003560e01c806322b05ed21461005c5780633bfd95f1146100995780633ccfd60b146100c25780638f283970146100d9578063d10e516a14610102578063d83a7cf91461012b5761005a565b5b005b34801561006857600080fd5b50610083600480360381019061007e9190610bb9565b61016a565b6040516100909190610c79565b60405180910390f35b3480156100a557600080fd5b506100c060048036038101906100bb9190610c94565b610210565b005b3480156100ce57600080fd5b506100d76103c8565b005b3480156100e557600080fd5b5061010060048036038101906100fb9190610d6a565b610508565b005b34801561010e57600080fd5b5061012960048036038101906101249190610dbc565b610648565b005b34801561013757600080fd5b50610152600480360381019061014d9190610bb9565b610827565b60405161016193929190610ec6565b60405180910390f35b600060018260405161017c9190610f47565b908152602001604051809103902060030160009054906101000a900460ff166101da576040517f08c379a00000000000000000000000000000000000000000000000000000000081526004016101d190610faa565b60405180910390fd5b6001826040516101ea9190610f47565b908152602001604051809103902060010160009054906101000a900460ff169050919050565b6001826040516102209190610f47565b908152602001604051809103902060030160009054906101000a900460ff161561027f576040517f08c379a000000000000000000000000000000000000000000000000000000000815260040161027690611016565b60405180910390fd5b6040518060800160405280838152602001600160048111156102a4576102a3610c02565b5b8152602001828152602001600115158152506001836040516102c69190610f47565b908152602001604051809103902060008201518160000190816102e9919061124c565b5060208201518160010160006101000a81548160ff0219169083600481111561031557610314610c02565b5b0217905550604082015181600201908161032f919061124c565b5060608201518160030160006101000a81548160ff0219169083151502179055509050507f10e3008d4eb7d72513eaddc4bbb145cc6796869e978f2d510ccb6c1bab484b5082604051610382919061131e565b60405180910390a17f4e407d4f938199e743ff3f9c87db0c2b408db2c74b3b83b01299015302ef05328260016040516103bc929190611340565b60405180910390a15050565b60008054906101000a900473ffffffffffffffffffffffffffffffffffffffff1673ffffffffffffffffffffffffffffffffffffffff163373ffffffffffffffffffffffffffffffffffffffff1614610456576040517f08c379a000000000000000000000000000000000000000000000000000000000815260040161044d906113e2565b60405180910390fd5b60004790506000811161049e576040517f08c379a00000000000000000000000000000000000000000000000000000000081526004016104959061144e565b60405180910390fd5b60008054906101000a900473ffffffffffffffffffffffffffffffffffffffff1673ffffffffffffffffffffffffffffffffffffffff166108fc829081150290604051600060405180830381858888f19350505050158015610504573d6000803e3d6000fd5b5050565b60008054906101000a900473ffffffffffffffffffffffffffffffffffffffff1673ffffffffffffffffffffffffffffffffffffffff163373ffffffffffffffffffffffffffffffffffffffff1614610596576040517f08c379a000000000000000000000000000000000000000000000000000000000815260040161058d906113e2565b60405180910390fd5b600073ffffffffffffffffffffffffffffffffffffffff168173ffffffffffffffffffffffffffffffffffffffff1603610605576040517f08c379a00000000000000000000000000000000000000000000000000000000081526004016105fc906114ba565b60405180910390fd5b806000806101000a81548173ffffffffffffffffffffffffffffffffffffffff021916908373ffffffffffffffffffffffffffffffffffffffff16021790555050565b60008054906101000a900473ffffffffffffffffffffffffffffffffffffffff1673ffffffffffffffffffffffffffffffffffffffff163373ffffffffffffffffffffffffffffffffffffffff16146106d6576040517f08c379a00000000000000000000000000000000000000000000000000000000081526004016106cd906113e2565b60405180910390fd5b6001836040516106e69190610f47565b908152602001604051809103902060030160009054906101000a900460ff16610744576040517f08c379a000000000000000000000000000000000000000000000000000000000815260040161073b90610faa565b60405180910390fd5b6003600481111561075857610757610c02565b5b82600481111561076b5761076a610c02565b5b036107a057806001846040516107819190610f47565b9081526020016040518091039020600201908161079e919061124c565b505b816001846040516107b19190610f47565b908152602001604051809103902060010160006101000a81548160ff021916908360048111156107e4576107e3610c02565b5b02179055507f4e407d4f938199e743ff3f9c87db0c2b408db2c74b3b83b01299015302ef0532838360405161081a929190611340565b60405180910390a1505050565b60606000606060018460405161083d9190610f47565b908152602001604051809103902060030160009054906101000a900460ff1661089b576040517f08c379a000000000000000000000000000000000000000000000000000000000815260040161089290610faa565b60405180910390fd5b60006001856040516108ad9190610f47565b90815260200160405180910390206040518060800160405290816000820180546108d690611065565b80601f016020809104026020016040519081016040528092919081815260200182805461090290611065565b801561094f5780601f106109245761010080835404028352916020019161094f565b820191906000526020600020905b81548152906001019060200180831161093257829003601f168201915b505050505081526020016001820160009054906101000a900460ff16600481111561097d5761097c610c02565b5b600481111561098f5761098e610c02565b5b81526020016002820180546109a390611065565b80601f01602080910402602001604051908101604052809291908181526020018280546109cf90611065565b8015610a1c5780601f106109f157610100808354040283529160200191610a1c565b820191906000526020600020905b8154815290600101906020018083116109ff57829003601f168201915b505050505081526020016003820160009054906101000a900460ff1615151515815250509050806000015181602001518260400151935093509350509193909250565b6000604051905090565b600080fd5b600080fd5b600080fd5b600080fd5b6000601f19601f8301169050919050565b7f4e487b7100000000000000000000000000000000000000000000000000000000600052604160045260246000fd5b610ac682610a7d565b810181811067ffffffffffffffff82111715610ae557610ae4610a8e565b5b80604052505050565b6000610af8610a5f565b9050610b048282610abd565b919050565b600067ffffffffffffffff821115610b2457610b23610a8e565b5b610b2d82610a7d565b9050602081019050919050565b82818337600083830152505050565b6000610b5c610b5784610b09565b610aee565b905082815260208101848484011115610b7857610b77610a78565b5b610b83848285610b3a565b509392505050565b600082601f830112610ba057610b9f610a73565b5b8135610bb0848260208601610b49565b91505092915050565b600060208284031215610bcf57610bce610a69565b5b600082013567ffffffffffffffff811115610bed57610bec610a6e565b5b610bf984828501610b8b565b91505092915050565b7f4e487b7100000000000000000000000000000000000000000000000000000000600052602160045260246000fd5b60058110610c4257610c41610c02565b5b50565b6000819050610c5382610c31565b919050565b6000610c6382610c45565b9050919050565b610c7381610c58565b82525050565b6000602082019050610c8e6000830184610c6a565b92915050565b60008060408385031215610cab57610caa610a69565b5b600083013567ffffffffffffffff811115610cc957610cc8610a6e565b5b610cd585828601610b8b565b925050602083013567ffffffffffffffff811115610cf657610cf5610a6e565b5b610d0285828601610b8b565b9150509250929050565b600073ffffffffffffffffffffffffffffffffffffffff82169050919050565b6000610d3782610d0c565b9050919050565b610d4781610d2c565b8114610d5257600080fd5b50565b600081359050610d6481610d3e565b92915050565b600060208284031215610d8057610d7f610a69565b5b6000610d8e84828501610d55565b91505092915050565b60058110610da457600080fd5b50565b600081359050610db681610d97565b92915050565b600080600060608486031215610dd557610dd4610a69565b5b600084013567ffffffffffffffff811115610df357610df2610a6e565b5b610dff86828701610b8b565b9350506020610e1086828701610da7565b925050604084013567ffffffffffffffff811115610e3157610e30610a6e565b5b610e3d86828701610b8b565b9150509250925092565b600081519050919050565b600082825260208201905092915050565b60005b83811015610e81578082015181840152602081019050610e66565b60008484015250505050565b6000610e9882610e47565b610ea28185610e52565b9350610eb2818560208601610e63565b610ebb81610a7d565b840191505092915050565b60006060820190508181036000830152610ee08186610e8d565b9050610eef6020830185610c6a565b8181036040830152610f018184610e8d565b9050949350505050565b600081905092915050565b6000610f2182610e47565b610f2b8185610f0b565b9350610f3b818560208601610e63565b80840191505092915050565b6000610f538284610f16565b915081905092915050565b7f5061636b616765206e6f7420666f756e64000000000000000000000000000000600082015250565b6000610f94601183610e52565b9150610f9f82610f5e565b602082019050919050565b60006020820190508181036000830152610fc381610f87565b9050919050565b7f5061636b61676520616c72656164792065786973747300000000000000000000600082015250565b6000611000601683610e52565b915061100b82610fca565b602082019050919050565b6000602082019050818103600083015261102f81610ff3565b9050919050565b7f4e487b7100000000000000000000000000000000000000000000000000000000600052602260045260246000fd5b6000600282049050600182168061107d57607f821691505b6020821081036110905761108f611036565b5b50919050565b60008190508160005260206000209050919050565b60006020601f8301049050919050565b600082821b905092915050565b6000600883026110f87fffffffffffffffffffffffffffffffffffffffffffffffffffffffffffffffff826110bb565b61110286836110bb565b95508019841693508086168417925050509392505050565b6000819050919050565b6000819050919050565b600061114961114461113f8461111a565b611124565b61111a565b9050919050565b6000819050919050565b6111638361112e565b61117761116f82611150565b8484546110c8565b825550505050565b600090565b61118c61117f565b61119781848461115a565b505050565b5b818110156111bb576111b0600082611184565b60018101905061119d565b5050565b601f821115611200576111d181611096565b6111da846110ab565b810160208510156111e9578190505b6111fd6111f5856110ab565b83018261119c565b50505b505050565b600082821c905092915050565b600061122360001984600802611205565b1980831691505092915050565b600061123c8383611212565b9150826002028217905092915050565b61125582610e47565b67ffffffffffffffff81111561126e5761126d610a8e565b5b6112788254611065565b6112838282856111bf565b600060209050601f8311600181146112b657600084156112a4578287015190505b6112ae8582611230565b865550611316565b601f1984166112c486611096565b60005b828110156112ec578489015182556001820191506020850194506020810190506112c7565b868310156113095784890151611305601f891682611212565b8355505b6001600288020188555050505b505050505050565b600060208201905081810360008301526113388184610e8d565b905092915050565b6000604082019050818103600083015261135a8185610e8d565b90506113696020830184610c6a565b9392505050565b7f4f6e6c792061646d696e2063616e20706572666f726d2074686973206163746960008201527f6f6e000000000000000000000000000000000000000000000000000000000000602082015250565b60006113cc602283610e52565b91506113d782611370565b604082019050919050565b600060208201905081810360008301526113fb816113bf565b9050919050565b7f4e6f2062616c616e636520746f20776974686472617700000000000000000000600082015250565b6000611438601683610e52565b915061144382611402565b602082019050919050565b600060208201905081810360008301526114678161142b565b9050919050565b7f57616c6c65742061646472657373206973206e6f742076616c69640000000000600082015250565b60006114a4601b83610e52565b91506114af8261146e565b602082019050919050565b600060208201905081810360008301526114d381611497565b905091905056fea26469706673582212203c4a53ae2faa124cada9a5987be8f467275eb41507d8b74e8df71618e038c3ad64736f6c634300081c0033",
  "linkReferences": {},
  "deployedLinkReferences": {}
}