{
  "_format": "hh-sol-artifact-1",
  "contractName": "DeliveryTracking",
  "sourceName": "src/contracts/DeliveryTracking.sol",
  "abi": [
    {
      "inputs": [],
      "stateMutability": "nonpayable",
      "type": "constructor"
    },
    {
      "anonymous": false,
      "inputs": [
        {
          "indexed": false,
          "internalType": "string",
          "name": "packageId",
          "type": "string"
        }
      ],
      "name": "DeliveryCreated",
      "type": "event"
    },
    {
      "anonymous": false,
      "inputs": [
        {
          "indexed": false,
          "internalType": "string",
          "name": "packageId",
          "type": "string"
        },
        {
          "indexed": false,
          "internalType": "enum DeliveryTracking.Status",
          "name": "newStatus",
          "type": "uint8"
        }
      ],
      "name": "StatusUpdated",
      "type": "event"
    },
    {
      "stateMutability": "payable",
      "type": "fallback"
    },
    {
      "inputs": [
        {
          "internalType": "address",
          "name": "_admin",
          "type": "address"
        }
      ],
      "name": "changeAdmin",
      "outputs": [],
      "stateMutability": "nonpayable",
      "type": "function"
    },
    {
      "inputs": [
        {
          "internalType": "string",
          "name": "_packageId",
          "type": "string"
        },
        {
          "internalType": "string",
          "name": "_meta",
          "type": "string"
        }
      ],
      "name": "createDelivery",
      "outputs": [],
      "stateMutability": "nonpayable",
      "type": "function"
    },
    {
      "inputs": [
        {
          "internalType": "string",
          "name": "_packageId",
          "type": "string"
        }
      ],
      "name": "getDelivery",
      "outputs": [
        {
          "internalType": "string",
          "name": "",
          "type": "string"
        },
        {
          "internalType": "enum DeliveryTracking.Status",
          "name": "",
          "type": "uint8"
        },
        {
          "internalType": "string",
          "name": "",
          "type": "string"
        }
      ],
      "stateMutability": "view",
      "type": "function"
    },
    {
      "inputs": [
        {
          "internalType": "string",
          "name": "_packageId",
          "type": "string"
        }
      ],
      "name": "getStatus",
      "outputs": [
        {
          "internalType": "enum DeliveryTracking.Status",
          "name": "",
          "type": "uint8"
        }
      ],
      "stateMutability": "view",
      "type": "function"
    },
    {
      "inputs": [
        {
          "internalType": "string",
          "name": "_packageId",
          "type": "string"
        },
        {
          "internalType": "enum DeliveryTracking.Status",
          "name": "_status",
          "type": "uint8"
        }
      ],
      "name": "updateStatus",
      "outputs": [],
      "stateMutability": "nonpayable",
      "type": "function"
    },
    {
      "inputs": [],
      "name": "withdraw",
      "outputs": [],
      "stateMutability": "nonpayable",
      "type": "function"
    },
    {
      "stateMutability": "payable",
      "type": "receive"
    }
  ],
  "bytecode": "0x6080604052348015600f57600080fd5b50336000806101000a81548173ffffffffffffffffffffffffffffffffffffffff021916908373ffffffffffffffffffffffffffffffffffffffff1602179055506114848061005f6000396000f3fe6080604052600436106100595760003560e01c806322b05ed21461005c5780633bfd95f1146100995780633ccfd60b146100c257806353616982146100d95780638f28397014610102578063d83a7cf91461012b5761005a565b5b005b34801561006857600080fd5b50610083600480360381019061007e9190610b5c565b61016a565b6040516100909190610c1c565b60405180910390f35b3480156100a557600080fd5b506100c060048036038101906100bb9190610c37565b610210565b005b3480156100ce57600080fd5b506100d76103c8565b005b3480156100e557600080fd5b5061010060048036038101906100fb9190610cd4565b610508565b005b34801561010e57600080fd5b5061012960048036038101906101249190610d8e565b61068a565b005b34801561013757600080fd5b50610152600480360381019061014d9190610b5c565b6107ca565b60405161016193929190610e3a565b60405180910390f35b600060018260405161017c9190610ebb565b908152602001604051809103902060030160009054906101000a900460ff166101da576040517f08c379a00000000000000000000000000000000000000000000000000000000081526004016101d190610f1e565b60405180910390fd5b6001826040516101ea9190610ebb565b908152602001604051809103902060010160009054906101000a900460ff169050919050565b6001826040516102209190610ebb565b908152602001604051809103902060030160009054906101000a900460ff161561027f576040517f08c379a000000000000000000000000000000000000000000000000000000000815260040161027690610f8a565b60405180910390fd5b6040518060800160405280838152602001600160048111156102a4576102a3610ba5565b5b8152602001828152602001600115158152506001836040516102c69190610ebb565b908152602001604051809103902060008201518160000190816102e991906111c0565b5060208201518160010160006101000a81548160ff0219169083600481111561031557610314610ba5565b5b0217905550604082015181600201908161032f91906111c0565b5060608201518160030160006101000a81548160ff0219169083151502179055509050507f10e3008d4eb7d72513eaddc4bbb145cc6796869e978f2d510ccb6c1bab484b50826040516103829190611292565b60405180910390a17f4e407d4f938199e743ff3f9c87db0c2b408db2c74b3b83b01299015302ef05328260016040516103bc9291906112b4565b60405180910390a15050565b60008054906101000a900473ffffffffffffffffffffffffffffffffffffffff1673ffffffffffffffffffffffffffffffffffffffff163373ffffffffffffffffffffffffffffffffffffffff1614610456576040517f08c379a000000000000000000000000000000000000000000000000000000000815260040161044d90611356565b60405180910390fd5b60004790506000811161049e576040517f08c379a0000000000000000000000000000000000000000000000000000000008152600401610495906113c2565b60405180910390fd5b60008054906101000a900473ffffffffffffffffffffffffffffffffffffffff1673ffffffffffffffffffffffffffffffffffffffff166108fc829081150290604051600060405180830381858888f19350505050158015610504573d6000803e3d6000fd5b5050565b60008054906101000a900473ffffffffffffffffffffffffffffffffffffffff1673ffffffffffffffffffffffffffffffffffffffff163373ffffffffffffffffffffffffffffffffffffffff1614610596576040517f08c379a000000000000000000000000000000000000000000000000000000000815260040161058d90611356565b60405180910390fd5b6001826040516105a69190610ebb565b908152602001604051809103902060030160009054906101000a900460ff16610604576040517f08c379a00000000000000000000000000000000000000000000000000000000081526004016105fb90610f1e565b60405180910390fd5b806001836040516106159190610ebb565b908152602001604051809103902060010160006101000a81548160ff0219169083600481111561064857610647610ba5565b5b02179055507f4e407d4f938199e743ff3f9c87db0c2b408db2c74b3b83b01299015302ef0532828260405161067e9291906112b4565b60405180910390a15050565b60008054906101000a900473ffffffffffffffffffffffffffffffffffffffff1673ffffffffffffffffffffffffffffffffffffffff163373ffffffffffffffffffffffffffffffffffffffff1614610718576040517f08c379a000000000000000000000000000000000000000000000000000000000815260040161070f90611356565b60405180910390fd5b600073ffffffffffffffffffffffffffffffffffffffff168173ffffffffffffffffffffffffffffffffffffffff1603610787576040517f08c379a000000000000000000000000000000000000000000000000000000000815260040161077e9061142e565b60405180910390fd5b806000806101000a81548173ffffffffffffffffffffffffffffffffffffffff021916908373ffffffffffffffffffffffffffffffffffffffff16021790555050565b6060600060606001846040516107e09190610ebb565b908152602001604051809103902060030160009054906101000a900460ff1661083e576040517f08c379a000000000000000000000000000000000000000000000000000000000815260040161083590610f1e565b60405180910390fd5b60006001856040516108509190610ebb565b908152602001604051809103902060405180608001604052908160008201805461087990610fd9565b80601f01602080910402602001604051908101604052809291908181526020018280546108a590610fd9565b80156108f25780601f106108c7576101008083540402835291602001916108f2565b820191906000526020600020905b8154815290600101906020018083116108d557829003601f168201915b505050505081526020016001820160009054906101000a900460ff1660048111156109205761091f610ba5565b5b600481111561093257610931610ba5565b5b815260200160028201805461094690610fd9565b80601f016020809104026020016040519081016040528092919081815260200182805461097290610fd9565b80156109bf5780601f10610994576101008083540402835291602001916109bf565b820191906000526020600020905b8154815290600101906020018083116109a257829003601f168201915b505050505081526020016003820160009054906101000a900460ff1615151515815250509050806000015181602001518260400151935093509350509193909250565b6000604051905090565b600080fd5b600080fd5b600080fd5b600080fd5b6000601f19601f8301169050919050565b7f4e487b7100000000000000000000000000000000000000000000000000000000600052604160045260246000fd5b610a6982610a20565b810181811067ffffffffffffffff82111715610a8857610a87610a31565b5b80604052505050565b6000610a9b610a02565b9050610aa78282610a60565b919050565b600067ffffffffffffffff821115610ac757610ac6610a31565b5b610ad082610a20565b9050602081019050919050565b82818337600083830152505050565b6000610aff610afa84610aac565b610a91565b905082815260208101848484011115610b1b57610b1a610a1b565b5b610b26848285610add565b509392505050565b600082601f830112610b4357610b42610a16565b5b8135610b53848260208601610aec565b91505092915050565b600060208284031215610b7257610b71610a0c565b5b600082013567ffffffffffffffff811115610b9057610b8f610a11565b5b610b9c84828501610b2e565b91505092915050565b7f4e487b7100000000000000000000000000000000000000000000000000000000600052602160045260246000fd5b60058110610be557610be4610ba5565b5b50565b6000819050610bf682610bd4565b919050565b6000610c0682610be8565b9050919050565b610c1681610bfb565b82525050565b6000602082019050610c316000830184610c0d565b92915050565b60008060408385031215610c4e57610c4d610a0c565b5b600083013567ffffffffffffffff811115610c6c57610c6b610a11565b5b610c7885828601610b2e565b925050602083013567ffffffffffffffff811115610c9957610c98610a11565b5b610ca585828601610b2e565b9150509250929050565b60058110610cbc57600080fd5b50565b600081359050610cce81610caf565b92915050565b60008060408385031215610ceb57610cea610a0c565b5b600083013567ffffffffffffffff811115610d0957610d08610a11565b5b610d1585828601610b2e565b9250506020610d2685828601610cbf565b9150509250929050565b600073ffffffffffffffffffffffffffffffffffffffff82169050919050565b6000610d5b82610d30565b9050919050565b610d6b81610d50565b8114610d7657600080fd5b50565b600081359050610d8881610d62565b92915050565b600060208284031215610da457610da3610a0c565b5b6000610db284828501610d79565b91505092915050565b600081519050919050565b600082825260208201905092915050565b60005b83811015610df5578082015181840152602081019050610dda565b60008484015250505050565b6000610e0c82610dbb565b610e168185610dc6565b9350610e26818560208601610dd7565b610e2f81610a20565b840191505092915050565b60006060820190508181036000830152610e548186610e01565b9050610e636020830185610c0d565b8181036040830152610e758184610e01565b9050949350505050565b600081905092915050565b6000610e9582610dbb565b610e9f8185610e7f565b9350610eaf818560208601610dd7565b80840191505092915050565b6000610ec78284610e8a565b915081905092915050565b7f5061636b616765206e6f7420666f756e64000000000000000000000000000000600082015250565b6000610f08601183610dc6565b9150610f1382610ed2565b602082019050919050565b60006020820190508181036000830152610f3781610efb565b9050919050565b7f5061636b61676520616c72656164792065786973747300000000000000000000600082015250565b6000610f74601683610dc6565b9150610f7f82610f3e565b602082019050919050565b60006020820190508181036000830152610fa381610f67565b9050919050565b7f4e487b7100000000000000000000000000000000000000000000000000000000600052602260045260246000fd5b60006002820490506001821680610ff157607f821691505b60208210810361100457611003610faa565b5b50919050565b60008190508160005260206000209050919050565b60006020601f8301049050919050565b600082821b905092915050565b60006008830261106c7fffffffffffffffffffffffffffffffffffffffffffffffffffffffffffffffff8261102f565b611076868361102f565b95508019841693508086168417925050509392505050565b6000819050919050565b6000819050919050565b60006110bd6110b86110b38461108e565b611098565b61108e565b9050919050565b6000819050919050565b6110d7836110a2565b6110eb6110e3826110c4565b84845461103c565b825550505050565b600090565b6111006110f3565b61110b8184846110ce565b505050565b5b8181101561112f576111246000826110f8565b600181019050611111565b5050565b601f821115611174576111458161100a565b61114e8461101f565b8101602085101561115d578190505b6111716111698561101f565b830182611110565b50505b505050565b600082821c905092915050565b600061119760001984600802611179565b1980831691505092915050565b60006111b08383611186565b9150826002028217905092915050565b6111c982610dbb565b67ffffffffffffffff8111156111e2576111e1610a31565b5b6111ec8254610fd9565b6111f7828285611133565b600060209050601f83116001811461122a5760008415611218578287015190505b61122285826111a4565b86555061128a565b601f1984166112388661100a565b60005b828110156112605784890151825560018201915060208501945060208101905061123b565b8683101561127d5784890151611279601f891682611186565b8355505b6001600288020188555050505b505050505050565b600060208201905081810360008301526112ac8184610e01565b905092915050565b600060408201905081810360008301526112ce8185610e01565b90506112dd6020830184610c0d565b9392505050565b7f4f6e6c792061646d696e2063616e20706572666f726d2074686973206163746960008201527f6f6e000000000000000000000000000000000000000000000000000000000000602082015250565b6000611340602283610dc6565b915061134b826112e4565b604082019050919050565b6000602082019050818103600083015261136f81611333565b9050919050565b7f4e6f2062616c616e636520746f20776974686472617700000000000000000000600082015250565b60006113ac601683610dc6565b91506113b782611376565b602082019050919050565b600060208201905081810360008301526113db8161139f565b9050919050565b7f57616c6c65742061646472657373206973206e6f742076616c69640000000000600082015250565b6000611418601b83610dc6565b9150611423826113e2565b602082019050919050565b600060208201905081810360008301526114478161140b565b905091905056fea26469706673582212204aa812d2b847777b1a74052947943c05bb78eab40404902b0aa7cbe2bcb567ab64736f6c634300081c0033",
  "linkReferences": {},
  "deployedLinkReferences": {}
}